:020000040040BA
:1000000088164020AD014000A9014000A901400030
:10001000A9014000A9014000A90140000000000022
:10002000000000000000000000000000A9014000E6
:10003000A901400000000000A9014000A901400002
:10004000A9014000A9014000A9014000A901400008
:10005000A9014000A9014000A9014000A9014000F8
:10006000A901400000000000A9014000A9014000D2
:10007000A9014000A9014000A9014000A9014000D8
:10008000A9014000A9014000A9014000A9014000C8
:10009000A9014000A9014000A9014000E905400074
:1000A000A9014000A9014000A9014000A9014000A8
:1000B000A9014000A9014000A9014000A901400098
:1000C000A9014000A9014000A9014000A901400088
:1000D000A9014000A9014000A9014000A901400078
:1000E000A9014000A9014000A9014000A901400068
:1000F000A9014000A9014000A9014000A901400058
:10010000A9014000A9014000A9014000A901400047
:10011000A9014000A901400000000000000000000B
:10012000A9014000A9014000A9014000A901400027
:10013000A9014000A9014000A9014000A901400017
:10014000A9014000A9014000A9014000A901400007
:10015000A9014000A9014000A9014000A9014000F7
:10016000A9014000A901400010B5054C237833B91E
:10017000044B13B10448AFF300800123237010BD7A
:100180004408402000000000A813400008B5034BBD
:100190001BB103490348AFF3008008BD0000000015
:1001A00048084020A8134000FEE700001649174801
:1001B000814210B50AD0164BC41EDA1C121A22F066
:1001C0000302A34238BF0022124B9847124B134838
:1001D000DA1CC11E121A22F00302994288BF0022C3
:1001E0000F4B002198470F4B0F4A23F07F0393607A
:1001F0000E4B03B198470E4B98470E4B03B19847EF
:100200000D4B9847FEE700BFA813400000004020B8
:1002100044084020C50D4000880A40204408402082
:10022000F90E40000000400000ED00E0000000007A
:100230000D0840000000000089024000104B114AE8
:100240001A629A6ED107FCD51A6A42F09B7242F488
:1002500080321A629A6ED203FCD5DA6942F4803297
:10026000DA619A6E5006FCD59A6E1107FCD54122D0
:100270001A639A6E1207FCD543221A63704700BFB7
:1002800000060E4001023700084A094C08B5536DBC
:1002900043F400435365074B9847074B01209847A9
:1002A0000120064B9847A047FDE700BF00180E400D
:1002B000050640003D024000C1024000F507400035
:1002C000012870B5044668D8354BB322354E282531
:1002D0005A651A6805FB00654FF4E87042F4005255
:1002E0001A60D3F8002142F02002C3F80021042351
:1002F0001C22EB60C5E906232B4B9847012C00F12B
:10030000400168606861696212D1284B284A3363F2
:10031000030C1B04C2F81431264B5A6842F4A04265
:100320005A601A6F00221A675A6F42F4A0425A6745
:100330002823012203FB04639B689A619A69D20710
:10034000FCD59A694FF6FC7542F0020229409A6189
:1003500000EA050241F4E01142F48022C3F884204F
:100360000022C3F88820C3F8C010D3F8C01041F0B1
:100370008841C3F8C0101049C3F8C820D96001F102
:10038000C0613039D9619A61986910F00100FBD1E0
:1003900028235C430123335170BD6FF00100FBE75C
:1003A00000060E4060084020550840000040034011
:1003B0000080084000120E40330A040070B50E4B56
:1003C0002824160104FB003300205D6A0B4614311B
:1003D00053F80C4B05EB0212A404506064F31C00AC
:1003E000A85108209071024413F8010B8B4202F8C7
:1003F000010BF9D170BD00BF60084020F8B50F4D6A
:1004000028230646002403FB005301201A6A00FA41
:1004100004F717420BD13046094B22469847282053
:1004200000FB06552B6A3B432B622046F8BD013486
:100430009F69A742EBD86FF00304F6E760084020FD
:10044000BD034000012817DC104B282202FB0030BE
:1004500083698B4213D9012303FA01F1036A19421C
:100460000DD08368D3F8CC0008400BD1D3F8D0204E
:100470001143C3F8D01070476FF0010070474FF080
:10048000FF3070476FF00400704700BF60084020E5
:10049000124B0022C3E900229A604FF40002104B75
:1004A0001A6014220F4BDA651A6842F400421A608F
:1004B0001A6942F400021A614CF202020A4B5A60B5
:1004C00040F2A932DA6101221A601A6842F004028D
:1004D0001A605A6A42F010025A627047B40840200B
:1004E00000E100E000060E4000C0004010B5074CDF
:1004F000074BE06098477020064B984770222061B8
:100500000021054BBDE81040184700BFB40840204B
:100510009104400055084000F90E400038B50A4CDF
:100520000546A3681B2B0CDC0146084BE068984786
:10053000A3682269A860002042F823500133A36019
:1005400038BD4FF0FF30FBE7B4084020FD0340000A
:10055000F8B505460024074E074F33691B592BB1E8
:100560005A68AA4202D19968F068B8470434702CDE
:10057000F3D1F8BDB40840204504400070B5184CD4
:100580002368092B2ADD00230A20164D23606368A7
:1005900001336360A8476368DB0701D41420A847D0
:1005A0006268052392FBF3F303EB83039A4201D1C4
:1005B0003220A84763680A2293FBF2F102FB113351
:1005C0000BB96420A8476368312B07DD00234FF483
:1005D000FA7063602B46BDE87040184770BD00BFDD
:1005E000B408402051054000044B1B6ADB0641BFA4
:1005F000034A136801331360704700BF00C0004016
:10060000B4084020004B18477D054000044B40BA19
:1006100093F82120588442F0030283F82120704788
:10062000C80840202DE9F14F40F2AE336D4C4FF435
:10063000FA75002064261427E0644FF0030CC4F818
:10064000840004F12801C4F8870004F58C7B04F5CC
:10065000967A04F5A079C4E90A3540F2B333C4E9C7
:100660000F35614BA364802384F84E304FF49063C0
:10067000C4E914354FF48463C4E9193640F25113C8
:10068000C4E91E37802384F88B304FF4AB73C4E980
:100690002600C4E9233684F89CC0A0234FF40C7CC8
:1006A00084F89830C4E928C6C4E90D00C4E91700ED
:1006B000C4E91C00C4E92B0084F8AF3040F21543B4
:1006C00040F2C33CC4E92D3540F24543C4E946C578
:1006D000C4E932354FF4187C4FF46D73C4E94BC54F
:1006E000C4E9373540F22C4C40F2B533C4E950C56B
:1006F000C4E93C3540F2074C4FF45073C4E9300074
:10070000C4E94135C4E93500C4E93A00C4E93F0011
:10071000C4E94400C4E94900C4E94E00C4E95300F7
:10072000C4E900C54FF20145C4E90300A5814FF4B7
:10073000AA75C4E9555704EB050840F2591504F5AC
:10074000B477C4E95A565A25C4E95D00C4E90800E3
:10075000C4E9580084F878514AF20F0040F20125AC
:10076000208442F21070C4E90556204D04F11406AD
:10077000A8471F4D0846A84704F13C021046A84769
:1007800004F15000A84704F16400A84704F1780080
:10079000A84704F18C00A84704F1A000A84704F181
:1007A000B400A84704F1C800A84704F1DC00A8473A
:1007B00004F1F000A84704F582731846A84758468C
:1007C000A8475046A8474846A8472046A84740465D
:1007D000A8473846A84730462B4601B0BDE8F04F41
:1007E000184700BFC80840204544000C0D064000D3
:1007F0001D054000034B10B59847034BBDE8104062
:10080000184700BFED0440002506400070B50D4EAE
:100810000D4D761BB61006D0002455F8043B01346C
:100820009847A642F9D1094E094D761B00F0AAFD62
:10083000B61006D0002455F8043B01349847A64270
:10084000F9D170BD90134000901340009813400000
:1008500090134000024B0146186800F003B800BF37
:10086000000040202DE9F04F01F10B06162E83B059
:10087000044624D8102900F2BA8000F08FFB10261D
:1008800018220220B54F3A44A2F1080153688B4266
:1008900000F0BA805A68D96822F003021A449D68B1
:1008A000E9608D60516841F001012046516003F11B
:1008B000080500F079FB284603B0BDE8F08F36F05C
:1008C000070600F19480B14200F2918000F066FBCF
:1008D000B6F5FC7FC0F09A81730A00F08F80042B7C
:1008E00000F26F81B30903F1390003F1380CC30042
:1008F0009A4F3B44A3F108055B689D4206D10CE08A
:10090000002980F22781DB689D4206D05A6822F0D8
:100910000302911B0F29F3DD60463D69DFF840C2F9
:1009200065457CD06A6822F00302931B0F2B00F30D
:100930007B81002BC7E904CC80F26C81B2F5007F8B
:1009400080F01A81D308796801334FEA521E0122E0
:1009500002FA0EF20A4357F833E0C5F808E007EB55
:10096000C3010839E9607A6047F83350CEF80C507B
:10097000831001219940914257D8114206D120F0AD
:1009800003004900114200F10400FAD007EBC0094E
:100990004D468646D5F80C80454508D11DE1002B13
:1009A00080F22481D8F80C80454500F01681D8F8F3
:1009B000042022F00302931B0F2BF0DD2046D8E920
:1009C000025408EB060146F00106C8F80460EC602A
:1009D000A56043F00104C7E90411C1E902CC4C60F1
:1009E00048F8023000F0E0FA08F1080502E00C23B4
:1009F00023600025284603B0BDE8F08F4FF4007354
:100A000040204FF03F0C73E7D3689A4208BF023092
:100A10007FF440AF3D69DFF848C1654582D17A680F
:100A20008310012199409142A7D9BD686B6823F0DA
:100A300003094E4503D8A9EB06030F2B7ADCDFF838
:100A400024B1494BDBF800201B680132334405EB2D
:100A5000090A00F0338103F580530F3323F47F68D4
:100A600028F00F084146204600F0A4FA411C024637
:100A700000F0F380824500F2EE803C4B196841445F
:100A80001960084600F04E81DBF800100193013137
:100A90001BBFA2EB0A0A5044CBF80020186012F0EA
:100AA000070B00F01781CBF108010A44CBF5805108
:100AB00090440831A1EB0801C1F30B0A51462046CE
:100AC000009200F077FA421CDDE9002300F04F812C
:100AD000801A00EB0A081968BA6048F00100514416
:100AE000BD425060196000F02981B9F10F0F40F24A
:100AF00027816868A9F10C0C2CF0070C00F00100AC
:100B000040EA0C0068604FF0050E05EB0C00BCF1EC
:100B10000F0FC0E901EE00F2328150681546144B08
:100B20001A688A4238BF1960124B1A688A4238BF65
:100B3000196094E0AA1943F0010346F001066E60C3
:100B40002046BA60536000F02FFA0835284603B0FB
:100B5000BDE8F08FD9681A44A1E600BF30044020F8
:100B60003804402038084020740A4020440A4020BD
:100B70006C0A4020700A4020B2F5206F4FEA5223E1
:100B800063D3142B00F2B78003F15C01C9005B331F
:100B900007EB010E7958AEF1080E8E4500F09180FA
:100BA0004B6823F00303934202D989688E45F7D13D
:100BB000D1F80CE07A68C5E9021ECEF80850CD6085
:100BC000D6E6142B59D9542B00F29D80330B03F138
:100BD0006F0003F16E0CC3008AE60EF1010E1EF0E9
:100BE000030F05F108057FF4D5AE51E042444546B8
:100BF0005368D8F80C1043F00103536055F8083FD0
:100C00002046D9608B6000F0CFF9F3E6F00806F1DA
:100C1000080237E62A442046536843F00103536034
:100C2000083500F0C1F9E5E6A919204646F00106AD
:100C300043F001046E60C7E90411C1E902CC4C60C5
:100C4000AB5000F0B1F90835D4E6930903F139014E
:100C5000C90038339CE7BD425FD0BD68686820F0AA
:100C600003084645A8EB060302D80F2B3FF762AFF7
:100C7000204600F099F90025BCE603F15C0003F181
:100C80005B0CC30034E659F808394B4540F09680B8
:100C900010F0030F00F1FF30F5D17B6823EA010368
:100CA0007B60490099423FF6C0AE19B9BDE64900E4
:100CB0000EF1040E1942FAD0704667E603F11008EF
:100CC000D0E69A104FF001087B6808FA02F21A4346
:100CD0007A6070E702EB08014942C1F30B0A514602
:100CE0002046009200F066F9431CDDE900237FF402
:100CF000EFAEDA46EFE6542B25D8130B03F16F0164
:100D0000C9006E3344E7B3F5AA7F25D8F30B03F18E
:100D1000780003F1770CC300EAE5294B18684044DA
:100D20001860B1E6CAF30B0CBCF1000F7FF4ACAE57
:100D3000BD68C84448F001006860F0E61546EEE67C
:100D40000123536094E7B3F5AA7F23D8D30B03F1B3
:100D50007801C90077331BE740F25452934223D8FD
:100D6000B30C03F17D0003F17C0CC300C0E5ABF1D3
:100D7000080BD844A8EB02084FF0000AABE605F1D7
:100D800008012046009300F09DF9BD68009B68684B
:100D90001968C4E640F254518B420BD8930C03F10E
:100DA0007D01C9007C33F3E64FF47E737F204FF062
:100DB0007E0C9DE54FF47E717E23E9E67B6870E74B
:100DC000440A4020844641EA000313F003036DD136
:100DD000403A41D351F8043B40F8043B51F8043BFE
:100DE00040F8043B51F8043B40F8043B51F8043B05
:100DF00040F8043B51F8043B40F8043B51F8043BF5
:100E000040F8043B51F8043B40F8043B51F8043BE4
:100E100040F8043B51F8043B40F8043B51F8043BD4
:100E200040F8043B51F8043B40F8043B51F8043BC4
:100E300040F8043B51F8043B40F8043B51F8043BB4
:100E400040F8043B51F8043B40F8043B51F8043BA4
:100E500040F8043B403ABDD2303211D351F8043B44
:100E600040F8043B51F8043B40F8043B51F8043B84
:100E700040F8043B51F8043B40F8043B103AEDD2F3
:100E80000C3205D351F8043B40F8043B043AF9D244
:100E9000043208D0D2071CBF11F8013B00F8013B17
:100EA00001D30B8803806046704700BF082A13D324
:100EB0008B078DD010F003038AD0C3F10403D21A3C
:100EC000DB071CBF11F8013B00F8013B80D331F870
:100ED000023B20F8023B7BE7043AD9D3013A11F8F0
:100EE000013B00F8013BF9D20B7803704B7843705B
:100EF0008B78837060467047830730B548D0541EA6
:100F0000002A3FD0CAB2034601E0013C3AD303F8BD
:100F1000012B9D07F9D1032C2DD9CDB245EA05252A
:100F20000F2C45EA054536D9A4F1100222F00F0C2A
:100F300003F1200EE6444FEA121C03F1100242E9CD
:100F4000045542E9025510327245F8D10CF1010204
:100F500014F00C0F03EB021204F00F0C13D0ACF1E1
:100F6000040323F003030433134442F8045B934265
:100F7000FBD10CF003042CB1CAB21C4403F8012BC2
:100F80009C42FBD130BD64461346002CF4D1F9E7F6
:100F900003461446BFE71A46A446E0E7014800F0BE
:100FA00097B900BF7C0A4020014800F093B900BF08
:100FB0007C0A402038B5074D0022044608462A60C6
:100FC00000F0D0F9431C00D038BD2B68002BFBD0BB
:100FD000236038BD800A4020024B13B1024800F064
:100FE00005B8704700000000F90F400000230146DB
:100FF0001A46184600F070B938B5084B084D5B1B0F
:101000009C1007D0043B1D44013C55F80439984717
:10101000002CF9D1BDE8384000F0BEB9A81340005B
:10102000A4134000F8B5244F0C460646FFF7B6FF60
:10103000BA685568C4F57E630F3325F003052B4469
:1010400023F47F6323F00F03A3F58054B4F5805F8E
:1010500007DB00213046FFF7ADFFBB682B44984209
:1010600004D03046FFF7A0FF0020F8BD61423046B3
:10107000FFF7A0FF01300DD0104ABB682D1B45F0D3
:1010800001055D60136830461B1B1360FFF78CFF82
:101090000120F8BD00213046FFF78CFFBA68831AA3
:1010A0000F2BDEDD43F001035360054B03491B6842
:1010B000C01A0860D5E700BF30044020440A402031
:1010C00038084020002961D0F8B50C460646FFF7E5
:1010D00065FF54F8042C7B4FA4F1080522F00101B0
:1010E00005EB010CB868DCF80430604523F003031D
:1010F00000F08B80D207CCF8043032D454F8082C9E
:10110000AD1A1144AA6807F1080082426AD00CEBBC
:101110000304D4F804E0EC68D4601EF0010FA26070
:1011200000F0978041F001036B60CCF80010B1F53E
:10113000007F35D27A68CB0848090121013381400C
:101140001143796007EBC30257F83310083AC5E939
:10115000021247F83350CD603046BDE8F840FFF743
:1011600023BF0CEB03025268D00710D4194407F1D7
:101170000800DCF80830834273D0DCF80C20DA6019
:10118000936041F001036B606950D0E7704741F014
:101190000103B1F5007F44F8043CCCF80010C9D33A
:1011A000B1F5206F4FEA512348D28B0903F1390082
:1011B00003F13802C300F818FB580838984259D098
:1011C0005A6822F003028A4202D99B689842F7D1FA
:1011D000D868C5E902308560DD603046BDE8F8407A
:1011E000FFF7E2BE0CEB03025268D20763D40B4454
:1011F000DCE90212CA60916043F001026A60304685
:10120000EB50BDE8F840FFF7CFBE0B44D10707D441
:1012100054F8082CAD1A1344D5E90212CA60916043
:1012200043F001026A60284ABD6012689A4293D86E
:10123000264B30461968FFF7F5FE8DE7142B0AD9C7
:10124000542B1FD80B0B03F16F0003F16E02C30088
:10125000B1E719448DE703F15C0003F15B02C300C1
:10126000A9E741F00103C7E90455C5E902006B6035
:10127000695071E779689210012404FA02F20A4376
:101280007A60A6E7B3F5AA7F06D8CB0B03F1780006
:1012900003F17702C3008EE740F25452934206D81E
:1012A0008B0C03F17D0003F17C02C30083E74FF454
:1012B0007E737E227FE741F001036B60CCF8001063
:1012C0004AE700BF300440203C084020740A402018
:1012D000704700BF704700BF2DE9F047DFF87CA0E2
:1012E0000646DAF8000098460F469146FFF7F0FFF1
:1012F0001B4B1B68D3F8484124B365681F2D26DCBF
:101300005EB96B1C0235DAF80000636044F82570A2
:10131000FFF7E0FF0020BDE8F08704EB8501012323
:10132000C1F88890D4F88821AB401A43022EC4F843
:101330008821C1F80881E4D1D4F88C211343C4F882
:101340008C31DEE703F5A674C3F84841D5E7DAF837
:101350000000FFF7BFFF4FF0FF30DCE74008402000
:1013600080134000044A05491368002B08BF0B4650
:101370001844106018467047840A402088124020A4
:1013800008004020F8B500BFF8BC08BC9E46704776
:10139000D90F40008D014000F8B500BFF8BC08BC73
:0813A0009E4670476901400000
:1013A800080040200000000000000000F402402077
:1013B8005C034020C403402000000000000000003F
:1013C8000000000000000000000000000000000015
:1013D8000000000000000000000000000000000005
:1013E80000000000000000000000000000000000F5
:1013F80000000000000000000000000000000000E5
:1014080000000000000000000000000000000000D4
:1014180000000000000000000000000000000000C4
:1014280000000000000000000000000000000000B4
:1014380000000000000000000000000000000000A4
:101448000000000000000000000000000000000094
:1014580001000000000000000E33CDAB34126DE631
:10146800ECDE05000B00000000000000000000009A
:101478000000000000000000000000000000000064
:101488000000000000000000000000000000000054
:101498000000000000000000000000000000000044
:1014A8000000000000000000000000000000000034
:1017D80000000000000000003004402030044020D9
:1017E8003804402038044020400440204004402071
:1017F8004804402048044020500440205004402021
:1018080058044020580440206004402060044020D0
:101818006804402068044020700440207004402080
:101828007804402078044020800440208004402030
:1018380088044020880440209004402090044020E0
:101848009804402098044020A0044020A004402090
:10185800A8044020A8044020B0044020B004402040
:10186800B8044020B8044020C0044020C0044020F0
:10187800C8044020C8044020D0044020D0044020A0
:10188800D8044020D8044020E0044020E004402050
:10189800E8044020E8044020F0044020F004402000
:1018A800F8044020F80440200005402000054020AE
:1018B800080540200805402010054020100540205C
:1018C800180540201805402020054020200540200C
:1018D80028054020280540203005402030054020BC
:1018E800380540203805402040054020400540206C
:1018F800480540204805402050054020500540201C
:1019080058054020580540206005402060054020CB
:10191800680540206805402070054020700540207B
:10192800780540207805402080054020800540202B
:1019380088054020880540209005402090054020DB
:101948009805402098054020A0054020A00540208B
:10195800A8054020A8054020B0054020B00540203B
:10196800B8054020B8054020C0054020C0054020EB
:10197800C8054020C8054020D0054020D00540209B
:10198800D8054020D8054020E0054020E00540204B
:10199800E8054020E8054020F0054020F0054020FB
:1019A800F8054020F80540200006402000064020A9
:1019B8000806402008064020100640201006402057
:1019C8001806402018064020200640202006402007
:1019D80028064020280640203006402030064020B7
:1019E8003806402038064020400640204006402067
:1019F8004806402048064020500640205006402017
:101A080058064020580640206006402060064020C6
:101A18006806402068064020700640207006402076
:101A28007806402078064020800640208006402026
:101A380088064020880640209006402090064020D6
:101A48009806402098064020A0064020A006402086
:101A5800A8064020A8064020B0064020B006402036
:101A6800B8064020B8064020C0064020C0064020E6
:101A7800C8064020C8064020D0064020D006402096
:101A8800D8064020D8064020E0064020E006402046
:101A9800E8064020E8064020F0064020F0064020F6
:101AA800F8064020F80640200007402000074020A4
:101AB8000807402008074020100740201007402052
:101AC8001807402018074020200740202007402002
:101AD80028074020280740203007402030074020B2
:101AE8003807402038074020400740204007402062
:101AF8004807402048074020500740205007402012
:101B080058074020580740206007402060074020C1
:101B18006807402068074020700740207007402071
:101B28007807402078074020800740208007402021
:101B380088074020880740209007402090074020D1
:101B48009807402098074020A0074020A007402081
:101B5800A8074020A8074020B0074020B007402031
:101B6800B8074020B8074020C0074020C0074020E1
:101B7800C8074020C8074020D0074020D007402091
:101B8800D8074020D8074020E0074020E007402041
:101B9800E8074020E8074020F0074020F0074020F1
:101BA800F8074020F807402000084020000840209F
:101BB800080840200808402010084020100840204D
:101BC80018084020180840202008402020084020FD
:101BD8002808402028084020FFFFFFFF00000200DF
:041BE800780A402017
:0400000500400000B7
:00000001FF
